:020000040800F2
:10000000E804002001010008ED020008B502000824
:10001000E9020008910100082F0900080000000013
:100020000000000000000000000000006D04000857
:100030009501000800000000750300088105000814
:100040001B0100081B0100081B0100081B01000820
:100050001B0100081B0100081B0100081B01000810
:100060001B0100081B0100081B0100081B01000800
:100070001B0100081B0100081B0100081B010008F0
:100080001B0100081B0100081B0100081B010008E0
:100090001B0100081B0100081B0100081B010008D0
:1000A0001B0100081B0100081B0100081B010008C0
:1000B0001B0100081B010008000000001B010008D4
:1000C0001B01000800000000000000001B010008E8
:1000D00000000000210600081B01000800000000CD
:1000E0001B0100081B0100081B010008DFF80CD0F1
:1000F00000F03CF800480047F5090008E80400203B
:100100000648804706480047FEE7FEE7FEE7FEE7B1
:10011000FEE7FEE7FEE7FEE7FEE7FEE7C1050008B3
:10012000ED000008D2B201E000F8012B491EFBD21D
:1001300070470022F6E710B513460A4604461946F2
:10014000FFF7F0FF204610BD30B505462A460B46A6
:1001500012F8010B13F8014B08B1A042F8D01CB102
:10016000002802D06D1CF1E7284630BD064C074D33
:1001700006E0E06840F0010394E807009847103477
:10018000AC42F6D3FFF7B6FFCC0C0008EC0C00082D
:1001900000BFFEE770472DE9F0410246002500262A
:1001A000002000230024002791F803C00CF00F0565
:1001B00091F803C00CF0100CBCF1000F03D091F8C3
:1001C00002C04CEA050591F800C0BCF1000F31D027
:1001D000146800202BE04FF0010C0CFA00F3B1F88A
:1001E00000C00CEA03069E4220D183004FF00F0CA2
:1001F0000CFA03F7BC4305FA03FC4CEA040491F83B
:1002000003C0BCF1280F06D14FF0010C0CFA00FC22
:10021000C2F814C00AE091F803C0BCF1480F05D140
:100220004FF0010C0CFA00FCC2F810C0401C08286A
:10023000D1D31460B1F800C0BCF1FF0F34DD5468B5
:1002400000202EE000F1080C4FF0010808FA0CF332
:10025000B1F800C00CEA03069E4221D183004FF0A2
:100260000F0C0CFA03F7BC4305FA03FC4CEA040438
:1002700091F803C0BCF1280F05D100F1080C08FA71
:100280000CF8C2F8148091F803C0BCF1480F07D1F4
:1002900000F1080C4FF0010808FA0CF8C2F81080C1
:1002A000401C0828CED35460BDE8F08141617047FE
:1002B0000161704700BFFEE708B50121042000F08E
:1002C0005BF81020ADF800008DF8030003208DF8D6
:1002D000020069460348FFF75EFF10210148FFF75F
:1002E000E7FF08BD0008014000BFFEE770470000BF
:1002F00070B5002100230F22C47804B3154C246884
:1003000004F4E064C4F5E064210AC1F10403CA40C6
:10031000447804FA03F184781440214309010E4C17
:100320000678A155047804F01F050124AC40057837
:100330006D11AD0005F1E025C5F8004109E0047834
:1003400004F01F050124AC40044D0678761145F8F1
:10035000264070BD0CED00E000E400E080E100E02C
:1003600002490143024A1160704700000000FA058B
:100370000CED00E07047000029B1064A9269024383
:10038000044B9A6104E0034A92698243014B9A61EB
:10039000704700000010024030B500210022002408
:1003A00000232D4D6D6805F00C0121B1042905D005
:1003B000082923D105E0294D056022E0274D05607D
:1003C0001FE0254D6D6805F47012234D6D6805F42E
:1003D0008034022505EB92421CB9214D554305603E
:1003E0000BE01D4D6D6805F400351DB11C4D5543E6
:1003F000056002E0194D5543056002E0174D0560A8
:1004000000BF00BF144D6D6805F0F0010909154DDE
:100410006B5C0568DD4045600F4D6D6805F4E0617B
:10042000090A104D6B5C4568DD4085600A4D6D68BA
:1004300005F46051C90A0B4D6B5C4568DD40C56031
:10044000054D6D6805F44041890B074D6B5CC5682F
:10045000B5FBF3F5056130BD0010024000127A00D3
:1004600000093D000000002010000020704710B57A
:1004700000F002F810BD00000CB5002001900090C3
:100480003348006840F480303149086000BF30488C
:10049000006800F4003000900198401C0190009822
:1004A00018B90198B0F5A06FF1D12948006800F49F
:1004B000003010B10120009001E000200090009871
:1004C000012843D12348006840F01000214908600A
:1004D0000846006820F0030008600846006840F005
:1004E000020008601A484068194948600846406898
:1004F00048600846406840F48060486008464068AC
:1005000020F47C1048600846406840F4E8104860D9
:100510000846006840F08070086000BF0C48006822
:1005200000F000700028F9D00948406820F003006E
:10053000074948600846406840F00200486000BF34
:100540000348406800F00C000828F9D10CBD0000F9
:100550000010024000200240042808D14FF0E021A2
:10056000096941F004014FF0E022116107E04FF00A
:10057000E021096921F004014FF0E0221161704788
:100580007047000010B504466FF00400FFF7E4FF69
:10059000E11704EB5171C1F3C701074A117010460E
:1005A000007800EB4001C1EBC0104FF6FF7101EA8B
:1005B000C0000249088010BD140000201600002071
:1005C00010B51348006840F0010011490860084662
:1005D0004068104908400E494860084600680E49C6
:1005E00008400B4908600846006820F48020086035
:1005F0000846406820F4FE0048604FF41F00886001
:10060000FFF735FF4FF000600449086010BD00009F
:10061000001002400000FFF8FFFFF6FE08ED00E0CA
:1006200010B540F225511D4800F0BCF810B31B482E
:1006300000F074F9C4B21A48008800F40040C8B948
:100640001748008800F4804060B10A2C03D00020D5
:100650001349088020E01248008840F40040104907
:10066000088019E00D2C06D10D48008840F4804028
:100670000B49088010E00A480088C0F30D000949C2
:100680000C5407480088401C05490880084600882B
:10069000C72801DD0020088010BD0000003801409F
:1006A000180000202000002010B586B0044601216B
:1006B0000420FFF761FE01218803FFF75DFE0121A1
:1006C0000846FFF759FE4FF40070ADF81400032000
:1006D0008DF8160018208DF8170005A91E48FFF7A1
:1006E0005AFD4FF48060ADF8140004208DF8170017
:1006F00005A91948FFF74FFD01940020ADF8080047
:10070000ADF80A00ADF80C00ADF810000C20ADF803
:100710000E0001A9114800F095F801210F4800F0E2
:1007200028F840210D4800F01BF8012240F2255125
:100730000A4800F061F825208DF8000003208DF8AC
:1007400001008DF8020001208DF803006846FFF7D4
:10075000CFFD06B010BD0000000801400038014088
:1007600001F40072B2F5007F00D100BFCA430280DD
:10077000704721B1828942F40052828104E082896B
:100780004DF6FF731A408281704702460020B1F592
:10079000007F00D100BF13880B400BB1012000E0A7
:1007A0000020704770B50246002400230025002079
:1007B00040F66A16B14200D100BFC1F3421501F004
:1007C0001F03012606FA03F3012D02D19689334057
:1007D00006E0022D02D1168A334001E0968A3340AA
:1007E0000C12012606FA04F41688344013B10CB139
:1007F000012000E0002070BDF0B503460024002673
:100800000025002040F66A17B94200D100BF184603
:10081000C1F3421401F01F06012707FA06F5012C67
:1008200001D10C3004E0022C01D1103000E0143072
:100830001AB107682F43076002E00768AF430760FB
:10084000F0BD00002DE9F04786B005460E460024B5
:10085000A24600BFA1460027B08900B100BF2F46C5
:100860002C8A4CF6FF700440F08804432C82AC893B
:100870004EF6F3100440B08831890843718908436B
:100880000443AC81AC8A4FF6FF400440B089044376
:10089000AC8201A8FFF780FD1F48874202D1DDF836
:1008A00010A001E0DDF80CA0A88900F4004040B1E0
:1008B0000AEBCA0000EB0A1031684900B0FBF1F8FE
:1008C00007E00AEBCA0000EB0A1031688900B0FBB0
:1008D000F1F86420B8FBF0F004012009642101FB69
:1008E0001089A88900F4004040B1322000EBC90013
:1008F000B0FBF1F000F00700044308E0322000EB09
:1009000009106421B0FBF1F000F00F0004432C81CA
:1009100006B0BDE8F0870000003801400146888835
:10092000C0F308007047C1F308028280704700BF1F
:10093000FEE70000014A024900F013B8D10900089F
:100940001C00002002E008C8121F08C1002AFAD1CA
:1009500070477047002001E001C1121F002AFBD13F
:1009600070472DE9F04116460F460446002503E086
:100970003946B047641C6D1C20780028F8D1284601
:10098000BDE8F0810146114A12884A434FF0E02346
:100990005A6100229A611A46126942F001021A61F4
:1009A00000BF4FF0E022106900F001021AB100F41C
:1009B0008032002AF5D04FF0E022126922F00102C5
:1009C0004FF0E0231A6100229A6170471600002060
:1009D00070B504460D46E1B20548FFF7A4FF00BF1D
:1009E00080210348FFF7D1FE0028F9D0204670BDD2
:1009F000003801401FB500BF00BF00BF4DA30FCBA3
:100A00008DE80F004820FFF7BDFD4FF4A060FFF711
:100A1000A7FCFFF751FC4FF4E130FFF745FE102132
:100A20004848FFF743FC4FF47A70FFF7ABFF46A04E
:100A3000FFF780FF4FF4FA60FFF7A4FF44A0FFF731
:100A400079FF4FF4FA60FFF79DFF44A0FFF772FFB4
:100A500041F28830FFF796FF41F28830FFF792FFAE
:100A600041F28830FFF78EFF41F28830FFF78AFFAE
:100A700010213448FFF71CFC44A0FFF75BFF40F651
:100A8000B830FFF77FFF4BA0FFF754FF40F6B830B8
:100A9000FFF778FF54A0FFF74DFF40F6B830FFF79F
:100AA00071FF5FA0FFF746FF40F6B830FFF76AFF1F
:100AB00010212448FFF7FAFB66A0FFF73BFF41F245
:100AC0008830FFF75FFF10211E48FFF7F1FB6EA093
:100AD000FFF730FF41F28830FFF754FF6AA0FFF7BD
:100AE00029FF41F28830FFF74DFF10211548FFF72D
:100AF000DDFB1EE07148008800F40040C8B170A121
:100B00007048FFF721FB18B110210E48FFF7CEFB0C
:100B10006DA16C48FFF718FB18B110210948FFF7C9
:100B2000C7FB4FF416716748FFF703FB00206349CA
:100B30000880DFE748656C6C6F20576F726C64212A
:100B4000000000000008014041540D0A00000000B0
:100B500041542B474D520D0A0000000041542B43D5
:100B6000574A41503D090909090909B8C4B3C9D711
:100B7000D4BCBAB5C4B6ABCEF7090909090909094D
:100B800009090909090909090D0A000041542B4303
:100B90004950534E54504346473D312C382C226E19
:100BA0007470312E616C6979756E2E636F6D220DD4
:100BB0000A00000041542B4D5154545553455243A3
:100BC00046473D0909090909B8C4B3C9D7D4BCBA15
:100BD000B5C4B6ABCEF7090909090909090909091C
:100BE00009090909090D0A0041542B4D5154544378
:100BF0004C49454E5449443D3009090909B8C4B32C
:100C0000C9D7D4BCBAB5C4B6ABCEF709090909092E
:100C1000090909090909090909090D0A0000000063
:100C200041542B4D515454434F4E4E3D3009090908
:100C3000090909B8C4B3C9D7D4BCBAB5C4B6ABCED8
:100C4000F709090909090909090909090909090926
:100C50000D0A000041542B4D5154545355423D3020
:100C6000090909090909B8C4B3C9D7D4BCBAB5C4BC
:100C7000B6ABCEF7090909090909090909090909E2
:100C80000909090D0A00000041542B4D51545450DC
:100C900055423D30090909090909B8C4B3C9D7D477
:100CA000BCBAB5C4B6ABCEF70909090909090909E7
:100CB000090909090909090D0A00000018000020A6
:100CC0006F6E0000200000206F666600EC0C0008CC
:100CD0000000002020000000440900080C0D00085E
:100CE00020000020C8040000540900080000000093
:100CF00001020304010203040607080902040608AE
:0C0D0000000000000000000000000000E7
:04000005080000ED02
:00000001FF
